{
  "_format": "hh-sol-artifact-1",
  "contractName": "NeoGigsEscrow",
  "sourceName": "contracts/NeoGigsEscrow.sol",
  "abi": [
    {
      "inputs": [
        {
          "internalType": "address",
          "name": "_freelancer",
          "type": "address"
        },
        {
          "internalType": "address",
          "name": "_validator",
          "type": "address"
        }
      ],
      "stateMutability": "nonpayable",
      "type": "constructor"
    },
    {
      "inputs": [],
      "name": "approveCancel",
      "outputs": [],
      "stateMutability": "nonpayable",
      "type": "function"
    },
    {
      "inputs": [],
      "name": "approveWork",
      "outputs": [],
      "stateMutability": "nonpayable",
      "type": "function"
    },
    {
      "inputs": [],
      "name": "cancel",
      "outputs": [],
      "stateMutability": "nonpayable",
      "type": "function"
    },
    {
      "inputs": [],
      "name": "client",
      "outputs": [
        {
          "internalType": "address",
          "name": "",
          "type": "address"
        }
      ],
      "stateMutability": "view",
      "type": "function"
    },
    {
      "inputs": [],
      "name": "completeWork",
      "outputs": [],
      "stateMutability": "nonpayable",
      "type": "function"
    },
    {
      "inputs": [],
      "name": "contractState",
      "outputs": [
        {
          "internalType": "enum NeoGigsEscrow.ContractState",
          "name": "",
          "type": "uint8"
        }
      ],
      "stateMutability": "view",
      "type": "function"
    },
    {
      "inputs": [],
      "name": "deposit",
      "outputs": [],
      "stateMutability": "payable",
      "type": "function"
    },
    {
      "inputs": [],
      "name": "freelancer",
      "outputs": [
        {
          "internalType": "address",
          "name": "",
          "type": "address"
        }
      ],
      "stateMutability": "view",
      "type": "function"
    },
    {
      "inputs": [],
      "name": "raiseDispute",
      "outputs": [],
      "stateMutability": "nonpayable",
      "type": "function"
    },
    {
      "inputs": [
        {
          "internalType": "address",
          "name": "to",
          "type": "address"
        }
      ],
      "name": "settleDispute",
      "outputs": [],
      "stateMutability": "nonpayable",
      "type": "function"
    },
    {
      "inputs": [],
      "name": "validator",
      "outputs": [
        {
          "internalType": "address",
          "name": "",
          "type": "address"
        }
      ],
      "stateMutability": "view",
      "type": "function"
    },
    {
      "inputs": [],
      "name": "withdraw",
      "outputs": [],
      "stateMutability": "payable",
      "type": "function"
    }
  ],
  "bytecode": "0x60806040523480156200001157600080fd5b50604051620013783803806200137883398181016040528101906200003791906200016b565b81600160006101000a81548173ffffffffffffffffffffffffffffffffffffffff021916908373ffffffffffffffffffffffffffffffffffffffff16021790555080600260006101000a81548173ffffffffffffffffffffffffffffffffffffffff021916908373ffffffffffffffffffffffffffffffffffffffff160217905550336000806101000a81548173ffffffffffffffffffffffffffffffffffffffff021916908373ffffffffffffffffffffffffffffffffffffffff1602179055505050620001b2565b600080fd5b600073ffffffffffffffffffffffffffffffffffffffff82169050919050565b6000620001338262000106565b9050919050565b620001458162000126565b81146200015157600080fd5b50565b60008151905062000165816200013a565b92915050565b6000806040838503121562000185576200018462000101565b5b6000620001958582860162000154565b9250506020620001a88582860162000154565b9150509250929050565b6111b680620001c26000396000f3fe6080604052600436106100a75760003560e01c806385209ee01161006457806385209ee01461016357806396a2eaa61461018e578063a37dda2c146101a5578063d0e30db0146101d0578063ddb3a532146101da578063ea8a1af0146101f1576100a7565b80630188ec73146100ac578063109e94cf146100c35780633a5381b5146100ee5780633ccfd60b146101195780636daa2d441461012357806384c4764c1461013a575b600080fd5b3480156100b857600080fd5b506100c1610208565b005b3480156100cf57600080fd5b506100d86103a4565b6040516100e59190610e48565b60405180910390f35b3480156100fa57600080fd5b506101036103c8565b6040516101109190610e48565b60405180910390f35b6101216103ee565b005b34801561012f57600080fd5b5061013861058c565b005b34801561014657600080fd5b50610161600480360381019061015c9190610e94565b61069f565b005b34801561016f57600080fd5b50610178610902565b6040516101859190610f38565b60405180910390f35b34801561019a57600080fd5b506101a3610915565b005b3480156101b157600080fd5b506101ba610a48565b6040516101c79190610e48565b60405180910390f35b6101d8610a6e565b005b3480156101e657600080fd5b506101ef610ba6565b005b3480156101fd57600080fd5b50610206610cd6565b005b600160009054906101000a900473ffffffffffffffffffffffffffffffffffffffff1673ffffffffffffffffffffffffffffffffffffffff163373ffffffffffffffffffffffffffffffffffffffff1614610298576040517f08c379a000000000000000000000000000000000000000000000000000000000815260040161028f90610fb0565b60405180910390fd5b600360098111156102ac576102ab610ec1565b5b600260149054906101000a900460ff1660098111156102ce576102cd610ec1565b5b1461030e576040517f08c379a00000000000000000000000000000000000000000000000000000000081526004016103059061101c565b60405180910390fd5b6004600260146101000a81548160ff0219169083600981111561033457610333610ec1565b5b021790555060008054906101000a900473ffffffffffffffffffffffffffffffffffffffff1673ffffffffffffffffffffffffffffffffffffffff166108fc6003549081150290604051600060405180830381858888f193505050501580156103a1573d6000803e3d6000fd5b50565b60008054906101000a900473ffffffffffffffffffffffffffffffffffffffff1681565b600260009054906101000a900473ffffffffffffffffffffffffffffffffffffffff1681565b600160009054906101000a900473ffffffffffffffffffffffffffffffffffffffff1673ffffffffffffffffffffffffffffffffffffffff163373ffffffffffffffffffffffffffffffffffffffff161461047e576040517f08c379a000000000000000000000000000000000000000000000000000000000815260040161047590610fb0565b60405180910390fd5b6002600981111561049257610491610ec1565b5b600260149054906101000a900460ff1660098111156104b4576104b3610ec1565b5b146104f4576040517f08c379a00000000000000000000000000000000000000000000000000000000081526004016104eb9061101c565b60405180910390fd5b600160009054906101000a900473ffffffffffffffffffffffffffffffffffffffff1673ffffffffffffffffffffffffffffffffffffffff166108fc6003549081150290604051600060405180830381858888f1935050505015801561055e573d6000803e3d6000fd5b506009600260146101000a81548160ff0219169083600981111561058557610584610ec1565b5b0217905550565b60008054906101000a900473ffffffffffffffffffffffffffffffffffffffff1673ffffffffffffffffffffffffffffffffffffffff163373ffffffffffffffffffffffffffffffffffffffff1614806106335750600160009054906101000a900473ffffffffffffffffffffffffffffffffffffffff1673ffffffffffffffffffffffffffffffffffffffff163373ffffffffffffffffffffffffffffffffffffffff16145b610672576040517f08c379a000000000000000000000000000000000000000000000000000000000815260040161066990611088565b60405180910390fd5b6005600260146101000a81548160ff0219169083600981111561069857610697610ec1565b5b0217905550565b600260009054906101000a900473ffffffffffffffffffffffffffffffffffffffff1673ffffffffffffffffffffffffffffffffffffffff163373ffffffffffffffffffffffffffffffffffffffff161461072f576040517f08c379a000000000000000000000000000000000000000000000000000000000815260040161072690610fb0565b60405180910390fd5b6005600981111561074357610742610ec1565b5b600260149054906101000a900460ff16600981111561076557610764610ec1565b5b146107a5576040517f08c379a000000000000000000000000000000000000000000000000000000000815260040161079c9061101c565b60405180910390fd5b60008054906101000a900473ffffffffffffffffffffffffffffffffffffffff1673ffffffffffffffffffffffffffffffffffffffff168173ffffffffffffffffffffffffffffffffffffffff16148061084c5750600160009054906101000a900473ffffffffffffffffffffffffffffffffffffffff1673ffffffffffffffffffffffffffffffffffffffff168173ffffffffffffffffffffffffffffffffffffffff16145b61088b576040517f08c379a0000000000000000000000000000000000000000000000000000000008152600401610882906110f4565b60405180910390fd5b8073ffffffffffffffffffffffffffffffffffffffff166108fc6003549081150290604051600060405180830381858888f193505050501580156108d3573d6000803e3d6000fd5b506008600260146101000a81548160ff021916908360098111156108fa576108f9610ec1565b5b021790555050565b600260149054906101000a900460ff1681565b600160009054906101000a900473ffffffffffffffffffffffffffffffffffffffff1673ffffffffffffffffffffffffffffffffffffffff163373ffffffffffffffffffffffffffffffffffffffff16146109a5576040517f08c379a000000000000000000000000000000000000000000000000000000000815260040161099c90610fb0565b60405180910390fd5b600160098111156109b9576109b8610ec1565b5b600260149054906101000a900460ff1660098111156109db576109da610ec1565b5b14610a1b576040517f08c379a0000000000000000000000000000000000000000000000000000000008152600401610a129061101c565b60405180910390fd5b6007600260146101000a81548160ff02191690836009811115610a4157610a40610ec1565b5b0217905550565b600160009054906101000a900473ffffffffffffffffffffffffffffffffffffffff1681565b60008054906101000a900473ffffffffffffffffffffffffffffffffffffffff1673ffffffffffffffffffffffffffffffffffffffff163373ffffffffffffffffffffffffffffffffffffffff1614610afc576040517f08c379a0000000000000000000000000000000000000000000000000000000008152600401610af390611160565b60405180910390fd5b60006009811115610b1057610b0f610ec1565b5b600260149054906101000a900460ff166009811115610b3257610b31610ec1565b5b14610b72576040517f08c379a0000000000000000000000000000000000000000000000000000000008152600401610b699061101c565b60405180910390fd5b346003819055506001600260146101000a81548160ff02191690836009811115610b9f57610b9e610ec1565b5b0217905550565b60008054906101000a900473ffffffffffffffffffffffffffffffffffffffff1673ffffffffffffffffffffffffffffffffffffffff163373ffffffffffffffffffffffffffffffffffffffff1614610c34576040517f08c379a0000000000000000000000000000000000000000000000000000000008152600401610c2b90611160565b60405180910390fd5b60076009811115610c4857610c47610ec1565b5b600260149054906101000a900460ff166009811115610c6a57610c69610ec1565b5b14610caa576040517f08c379a0000000000000000000000000000000000000000000000000000000008152600401610ca19061101c565b60405180910390fd5b60028060146101000a81548160ff02191690836009811115610ccf57610cce610ec1565b5b0217905550565b60008054906101000a900473ffffffffffffffffffffffffffffffffffffffff1673ffffffffffffffffffffffffffffffffffffffff163373ffffffffffffffffffffffffffffffffffffffff1614610d64576040517f08c379a0000000000000000000000000000000000000000000000000000000008152600401610d5b90611160565b60405180910390fd5b60016009811115610d7857610d77610ec1565b5b600260149054906101000a900460ff166009811115610d9a57610d99610ec1565b5b14610dda576040517f08c379a0000000000000000000000000000000000000000000000000000000008152600401610dd19061101c565b60405180910390fd5b6003600260146101000a81548160ff02191690836009811115610e0057610dff610ec1565b5b0217905550565b600073ffffffffffffffffffffffffffffffffffffffff82169050919050565b6000610e3282610e07565b9050919050565b610e4281610e27565b82525050565b6000602082019050610e5d6000830184610e39565b92915050565b600080fd5b610e7181610e27565b8114610e7c57600080fd5b50565b600081359050610e8e81610e68565b92915050565b600060208284031215610eaa57610ea9610e63565b5b6000610eb884828501610e7f565b91505092915050565b7f4e487b7100000000000000000000000000000000000000000000000000000000600052602160045260246000fd5b600a8110610f0157610f00610ec1565b5b50565b6000819050610f1282610ef0565b919050565b6000610f2282610f04565b9050919050565b610f3281610f17565b82525050565b6000602082019050610f4d6000830184610f29565b92915050565b600082825260208201905092915050565b7f63616c6c6572206973206e6f7420667265656c616e6365720000000000000000600082015250565b6000610f9a601883610f53565b9150610fa582610f64565b602082019050919050565b60006020820190508181036000830152610fc981610f8d565b9050919050565b7f696e76616c696420737461746500000000000000000000000000000000000000600082015250565b6000611006600d83610f53565b915061101182610fd0565b602082019050919050565b6000602082019050818103600083015261103581610ff9565b9050919050565b7f6e6f7420617574686f72697a6564000000000000000000000000000000000000600082015250565b6000611072600e83610f53565b915061107d8261103c565b602082019050919050565b600060208201905081810360008301526110a181611065565b9050919050565b7f746f206164647265737320696e76616c69640000000000000000000000000000600082015250565b60006110de601283610f53565b91506110e9826110a8565b602082019050919050565b6000602082019050818103600083015261110d816110d1565b9050919050565b7f63616c6c6572206973206e6f7420636c69656e74000000000000000000000000600082015250565b600061114a601483610f53565b915061115582611114565b602082019050919050565b600060208201905081810360008301526111798161113d565b905091905056fea26469706673582212202a076fdd7db3390affb9c3b7a5e91bab306805975ed94e6a1d216d8a47dceef564736f6c63430008120033",
  "linkReferences": {},
  "deployedLinkReferences": {}
}